{
  "_format": "hh-sol-artifact-1",
  "contractName": "CredentialRegistry",
  "sourceName": "src/contracts/CredentialRegistry.sol",
  "abi": [
    {
      "inputs": [
        {
          "internalType": "address",
          "name": "_institutionRegistryAddress",
          "type": "address"
        }
      ],
      "stateMutability": "nonpayable",
      "type": "constructor"
    },
    {
      "anonymous": false,
      "inputs": [
        {
          "indexed": false,
          "internalType": "string",
          "name": "credentialId",
          "type": "string"
        },
        {
          "indexed": true,
          "internalType": "address",
          "name": "issuer",
          "type": "address"
        },
        {
          "indexed": false,
          "internalType": "string",
          "name": "recipientId",
          "type": "string"
        },
        {
          "indexed": false,
          "internalType": "string",
          "name": "credentialHash",
          "type": "string"
        },
        {
          "indexed": false,
          "internalType": "string",
          "name": "ipfsHash",
          "type": "string"
        },
        {
          "indexed": false,
          "internalType": "uint256",
          "name": "issueDate",
          "type": "uint256"
        }
      ],
      "name": "CredentialIssued",
      "type": "event"
    },
    {
      "anonymous": false,
      "inputs": [
        {
          "indexed": false,
          "internalType": "string",
          "name": "credentialId",
          "type": "string"
        },
        {
          "indexed": false,
          "internalType": "uint256",
          "name": "revokedDate",
          "type": "uint256"
        }
      ],
      "name": "CredentialRevoked",
      "type": "event"
    },
    {
      "inputs": [
        {
          "internalType": "string",
          "name": "_credentialId",
          "type": "string"
        }
      ],
      "name": "getCredentialHash",
      "outputs": [
        {
          "internalType": "string",
          "name": "",
          "type": "string"
        }
      ],
      "stateMutability": "view",
      "type": "function"
    },
    {
      "inputs": [],
      "name": "institutionRegistry",
      "outputs": [
        {
          "internalType": "contract InstitutionRegistry",
          "name": "",
          "type": "address"
        }
      ],
      "stateMutability": "view",
      "type": "function"
    },
    {
      "inputs": [
        {
          "internalType": "string",
          "name": "_credentialId",
          "type": "string"
        },
        {
          "internalType": "string",
          "name": "_recipientId",
          "type": "string"
        },
        {
          "internalType": "string",
          "name": "_credentialHash",
          "type": "string"
        },
        {
          "internalType": "string",
          "name": "_ipfsHash",
          "type": "string"
        },
        {
          "internalType": "uint256",
          "name": "_expiryDate",
          "type": "uint256"
        }
      ],
      "name": "issueCredential",
      "outputs": [],
      "stateMutability": "nonpayable",
      "type": "function"
    },
    {
      "inputs": [
        {
          "internalType": "string",
          "name": "_credentialId",
          "type": "string"
        }
      ],
      "name": "revokeCredential",
      "outputs": [],
      "stateMutability": "nonpayable",
      "type": "function"
    },
    {
      "inputs": [
        {
          "internalType": "string",
          "name": "_credentialId",
          "type": "string"
        }
      ],
      "name": "verifyCredential",
      "outputs": [
        {
          "internalType": "bool",
          "name": "isValid",
          "type": "bool"
        },
        {
          "internalType": "address",
          "name": "issuer",
          "type": "address"
        },
        {
          "internalType": "string",
          "name": "recipientId",
          "type": "string"
        },
        {
          "internalType": "string",
          "name": "ipfsHash",
          "type": "string"
        },
        {
          "internalType": "uint256",
          "name": "issueDate",
          "type": "uint256"
        },
        {
          "internalType": "bool",
          "name": "isRevoked",
          "type": "bool"
        }
      ],
      "stateMutability": "view",
      "type": "function"
    }
  ],
  "bytecode": "0x60806040523480156200001157600080fd5b506040516200150838038062001508833981810160405281019062000037919062000095565b806000806101000a81548173ffffffffffffffffffffffffffffffffffffffff021916908373ffffffffffffffffffffffffffffffffffffffff160217905550506200010f565b6000815190506200008f81620000f5565b92915050565b600060208284031215620000a857600080fd5b6000620000b8848285016200007e565b91505092915050565b6000620000ce82620000d5565b9050919050565b600073ffffffffffffffffffffffffffffffffffffffff82169050919050565b6200010081620000c1565b81146200010c57600080fd5b50565b6113e9806200011f6000396000f3fe608060405234801561001057600080fd5b50600436106100575760003560e01c80631b1fcb041461005c57806322e4c7471461007a5780635e9a2d281461009657806382c4e329146100b2578063bb3670ab146100e2575b600080fd5b610064610117565b6040516100719190610ef3565b60405180910390f35b610094600480360381019061008f9190610c26565b61013b565b005b6100b060048036038101906100ab9190610be5565b610465565b005b6100cc60048036038101906100c79190610be5565b610622565b6040516100d99190610f0e565b60405180910390f35b6100fc60048036038101906100f79190610be5565b6106d5565b60405161010e96959493929190610e84565b60405180910390f35b60008054906101000a900473ffffffffffffffffffffffffffffffffffffffff1681565b60008054906101000a900473ffffffffffffffffffffffffffffffffffffffff1673ffffffffffffffffffffffffffffffffffffffff1663c3c5a547336040518263ffffffff1660e01b81526004016101949190610e69565b60206040518083038186803b1580156101ac57600080fd5b505afa1580156101c0573d6000803e3d6000fd5b505050506040513d601f19601f820116820180604052508101906101e49190610bbc565b610223576040517f08c379a000000000000000000000000000000000000000000000000000000000815260040161021a9061102f565b60405180910390fd5b60006001866040516102359190610e52565b908152602001604051809103902060000180546102519061119a565b905014610293576040517f08c379a000000000000000000000000000000000000000000000000000000000815260040161028a90610fef565b60405180910390fd5b6040518061012001604052808681526020013373ffffffffffffffffffffffffffffffffffffffff16815260200185815260200184815260200183815260200142815260200182815260200160001515815260200160008152506001866040516102fd9190610e52565b90815260200160405180910390206000820151816000019080519060200190610327929190610a87565b5060208201518160010160006101000a81548173ffffffffffffffffffffffffffffffffffffffff021916908373ffffffffffffffffffffffffffffffffffffffff160217905550604082015181600201908051906020019061038b929190610a87565b5060608201518160030190805190602001906103a8929190610a87565b5060808201518160040190805190602001906103c5929190610a87565b5060a0820151816005015560c0820151816006015560e08201518160070160006101000a81548160ff02191690831515021790555061010082015181600801559050503373ffffffffffffffffffffffffffffffffffffffff167f2ffa54c2d0828397830be1b214054411b4b7656cd2d80f1a486a4e4c72bd9d5f8686868642604051610456959493929190610f30565b60405180910390a25050505050565b60006001826040516104779190610e52565b9081526020016040518091039020905060008160000180546104989061119a565b905014156104db576040517f08c379a00000000000000000000000000000000000000000000000000000000081526004016104d290610fcf565b60405180910390fd5b3373ffffffffffffffffffffffffffffffffffffffff168160010160009054906101000a900473ffffffffffffffffffffffffffffffffffffffff1673ffffffffffffffffffffffffffffffffffffffff161461056d576040517f08c379a00000000000000000000000000000000000000000000000000000000081526004016105649061100f565b60405180910390fd5b8060070160009054906101000a900460ff16156105bf576040517f08c379a00000000000000000000000000000000000000000000000000000000081526004016105b69061104f565b60405180910390fd5b60018160070160006101000a81548160ff0219169083151502179055504281600801819055507f40ca72f89b44ef1c7e10d0b86020fdac3c7a112e6ef1cecc6280892cee95f7778242604051610616929190610f9f565b60405180910390a15050565b60606001826040516106349190610e52565b908152602001604051809103902060030180546106509061119a565b80601f016020809104026020016040519081016040528092919081815260200182805461067c9061119a565b80156106c95780601f1061069e576101008083540402835291602001916106c9565b820191906000526020600020905b8154815290600101906020018083116106ac57829003601f168201915b50505050509050919050565b60008060608060008060006001886040516106f09190610e52565b90815260200160405180910390206040518061012001604052908160008201805461071a9061119a565b80601f01602080910402602001604051908101604052809291908181526020018280546107469061119a565b80156107935780601f1061076857610100808354040283529160200191610793565b820191906000526020600020905b81548152906001019060200180831161077657829003601f168201915b505050505081526020016001820160009054906101000a900473ffffffffffffffffffffffffffffffffffffffff1673ffffffffffffffffffffffffffffffffffffffff1673ffffffffffffffffffffffffffffffffffffffff1681526020016002820180546108029061119a565b80601f016020809104026020016040519081016040528092919081815260200182805461082e9061119a565b801561087b5780601f106108505761010080835404028352916020019161087b565b820191906000526020600020905b81548152906001019060200180831161085e57829003601f168201915b505050505081526020016003820180546108949061119a565b80601f01602080910402602001604051908101604052809291908181526020018280546108c09061119a565b801561090d5780601f106108e25761010080835404028352916020019161090d565b820191906000526020600020905b8154815290600101906020018083116108f057829003601f168201915b505050505081526020016004820180546109269061119a565b80601f01602080910402602001604051908101604052809291908181526020018280546109529061119a565b801561099f5780601f106109745761010080835404028352916020019161099f565b820191906000526020600020905b81548152906001019060200180831161098257829003601f168201915b5050505050815260200160058201548152602001600682015481526020016007820160009054906101000a900460ff16151515158152602001600882015481525050905060008160000151511415610a2c576040517f08c379a0000000000000000000000000000000000000000000000000000000008152600401610a2390610fcf565b60405180910390fd5b6000808260c001511115610a44578160c00151421190505b8160e00151158015610a54575080155b9750878260200151836040015184608001518560a001518660e00151975097509750975097509750505091939550919395565b828054610a939061119a565b90600052602060002090601f016020900481019282610ab55760008555610afc565b82601f10610ace57805160ff1916838001178555610afc565b82800160010185558215610afc579182015b82811115610afb578251825591602001919060010190610ae0565b5b509050610b099190610b0d565b5090565b5b80821115610b26576000816000905550600101610b0e565b5090565b6000610b3d610b3884611094565b61106f565b905082815260208101848484011115610b5557600080fd5b610b60848285611158565b509392505050565b600081519050610b7781611385565b92915050565b600082601f830112610b8e57600080fd5b8135610b9e848260208601610b2a565b91505092915050565b600081359050610bb68161139c565b92915050565b600060208284031215610bce57600080fd5b6000610bdc84828501610b68565b91505092915050565b600060208284031215610bf757600080fd5b600082013567ffffffffffffffff811115610c1157600080fd5b610c1d84828501610b7d565b91505092915050565b600080600080600060a08688031215610c3e57600080fd5b600086013567ffffffffffffffff811115610c5857600080fd5b610c6488828901610b7d565b955050602086013567ffffffffffffffff811115610c8157600080fd5b610c8d88828901610b7d565b945050604086013567ffffffffffffffff811115610caa57600080fd5b610cb688828901610b7d565b935050606086013567ffffffffffffffff811115610cd357600080fd5b610cdf88828901610b7d565b9250506080610cf088828901610ba7565b9150509295509295909350565b610d06816110ec565b82525050565b610d15816110fe565b82525050565b610d2481611134565b82525050565b6000610d35826110c5565b610d3f81856110d0565b9350610d4f818560208601611167565b610d588161125b565b840191505092915050565b6000610d6e826110c5565b610d7881856110e1565b9350610d88818560208601611167565b80840191505092915050565b6000610da16019836110d0565b9150610dac8261126c565b602082019050919050565b6000610dc4601c836110d0565b9150610dcf82611295565b602082019050919050565b6000610de76021836110d0565b9150610df2826112be565b604082019050919050565b6000610e0a6026836110d0565b9150610e158261130d565b604082019050919050565b6000610e2d601d836110d0565b9150610e388261135c565b602082019050919050565b610e4c8161112a565b82525050565b6000610e5e8284610d63565b915081905092915050565b6000602082019050610e7e6000830184610cfd565b92915050565b600060c082019050610e996000830189610d0c565b610ea66020830188610cfd565b8181036040830152610eb88187610d2a565b90508181036060830152610ecc8186610d2a565b9050610edb6080830185610e43565b610ee860a0830184610d0c565b979650505050505050565b6000602082019050610f086000830184610d1b565b92915050565b60006020820190508181036000830152610f288184610d2a565b905092915050565b600060a0820190508181036000830152610f4a8188610d2a565b90508181036020830152610f5e8187610d2a565b90508181036040830152610f728186610d2a565b90508181036060830152610f868185610d2a565b9050610f956080830184610e43565b9695505050505050565b60006040820190508181036000830152610fb98185610d2a565b9050610fc86020830184610e43565b9392505050565b60006020820190508181036000830152610fe881610d94565b9050919050565b6000602082019050818103600083015261100881610db7565b9050919050565b6000602082019050818103600083015261102881610dda565b9050919050565b6000602082019050818103600083015261104881610dfd565b9050919050565b6000602082019050818103600083015261106881610e20565b9050919050565b600061107961108a565b905061108582826111cc565b919050565b6000604051905090565b600067ffffffffffffffff8211156110af576110ae61122c565b5b6110b88261125b565b9050602081019050919050565b600081519050919050565b600082825260208201905092915050565b600081905092915050565b60006110f78261110a565b9050919050565b60008115159050919050565b600073ffffffffffffffffffffffffffffffffffffffff82169050919050565b6000819050919050565b600061113f82611146565b9050919050565b60006111518261110a565b9050919050565b82818337600083830152505050565b60005b8381101561118557808201518184015260208101905061116a565b83811115611194576000848401525b50505050565b600060028204905060018216806111b257607f821691505b602082108114156111c6576111c56111fd565b5b50919050565b6111d58261125b565b810181811067ffffffffffffffff821117156111f4576111f361122c565b5b80604052505050565b7f4e487b7100000000000000000000000000000000000000000000000000000000600052602260045260246000fd5b7f4e487b7100000000000000000000000000000000000000000000000000000000600052604160045260246000fd5b6000601f19601f8301169050919050565b7f43726564656e7469616c20646f6573206e6f7420657869737400000000000000600082015250565b7f43726564656e7469616c20494420616c72656164792065786973747300000000600082015250565b7f4f6e6c79206973737565722063616e207265766f6b652063726564656e74696160008201527f6c00000000000000000000000000000000000000000000000000000000000000602082015250565b7f43616c6c6572206973206e6f742061207265676973746572656420696e73746960008201527f747574696f6e0000000000000000000000000000000000000000000000000000602082015250565b7f43726564656e7469616c20697320616c7265616479207265766f6b6564000000600082015250565b61138e816110fe565b811461139957600080fd5b50565b6113a58161112a565b81146113b057600080fd5b5056fea2646970667358221220b94e55ba2613ca353fdc72ffeefa76761ab4affec60f0c3fa258c86ad70c35b464736f6c63430008040033",
  "linkReferences": {},
  "deployedLinkReferences": {}
}