{
  "_format": "hh-sol-artifact-1",
  "contractName": "InstitutionRegistry",
  "sourceName": "src/contracts/InstitutionRegistry.sol",
  "abi": [
    {
      "inputs": [],
      "stateMutability": "nonpayable",
      "type": "constructor"
    },
    {
      "anonymous": false,
      "inputs": [
        {
          "indexed": true,
          "internalType": "address",
          "name": "institutionAddress",
          "type": "address"
        },
        {
          "indexed": false,
          "internalType": "string",
          "name": "institutionId",
          "type": "string"
        },
        {
          "indexed": false,
          "internalType": "string",
          "name": "name",
          "type": "string"
        },
        {
          "indexed": false,
          "internalType": "uint256",
          "name": "registrationDate",
          "type": "uint256"
        }
      ],
      "name": "InstitutionRegistered",
      "type": "event"
    },
    {
      "anonymous": false,
      "inputs": [
        {
          "indexed": true,
          "internalType": "address",
          "name": "institutionAddress",
          "type": "address"
        },
        {
          "indexed": false,
          "internalType": "bool",
          "name": "isActive",
          "type": "bool"
        }
      ],
      "name": "InstitutionStatusChanged",
      "type": "event"
    },
    {
      "inputs": [],
      "name": "admin",
      "outputs": [
        {
          "internalType": "address",
          "name": "",
          "type": "address"
        }
      ],
      "stateMutability": "view",
      "type": "function"
    },
    {
      "inputs": [
        {
          "internalType": "string",
          "name": "_institutionId",
          "type": "string"
        }
      ],
      "name": "getInstitutionByID",
      "outputs": [
        {
          "internalType": "address",
          "name": "institutionAddress",
          "type": "address"
        },
        {
          "internalType": "string",
          "name": "name",
          "type": "string"
        },
        {
          "internalType": "string",
          "name": "institutionType",
          "type": "string"
        },
        {
          "internalType": "string",
          "name": "country",
          "type": "string"
        },
        {
          "internalType": "bool",
          "name": "isActive",
          "type": "bool"
        },
        {
          "internalType": "uint256",
          "name": "registrationDate",
          "type": "uint256"
        }
      ],
      "stateMutability": "view",
      "type": "function"
    },
    {
      "inputs": [
        {
          "internalType": "address",
          "name": "_institutionAddress",
          "type": "address"
        }
      ],
      "name": "getInstitutionDetails",
      "outputs": [
        {
          "internalType": "string",
          "name": "institutionId",
          "type": "string"
        },
        {
          "internalType": "string",
          "name": "name",
          "type": "string"
        },
        {
          "internalType": "string",
          "name": "institutionType",
          "type": "string"
        },
        {
          "internalType": "string",
          "name": "country",
          "type": "string"
        },
        {
          "internalType": "bool",
          "name": "isActive",
          "type": "bool"
        },
        {
          "internalType": "uint256",
          "name": "registrationDate",
          "type": "uint256"
        }
      ],
      "stateMutability": "view",
      "type": "function"
    },
    {
      "inputs": [
        {
          "internalType": "address",
          "name": "_institutionAddress",
          "type": "address"
        }
      ],
      "name": "isRegistered",
      "outputs": [
        {
          "internalType": "bool",
          "name": "",
          "type": "bool"
        }
      ],
      "stateMutability": "view",
      "type": "function"
    },
    {
      "inputs": [
        {
          "internalType": "address",
          "name": "_institutionAddress",
          "type": "address"
        },
        {
          "internalType": "string",
          "name": "_institutionId",
          "type": "string"
        },
        {
          "internalType": "string",
          "name": "_name",
          "type": "string"
        },
        {
          "internalType": "string",
          "name": "_institutionType",
          "type": "string"
        },
        {
          "internalType": "string",
          "name": "_country",
          "type": "string"
        }
      ],
      "name": "registerInstitution",
      "outputs": [],
      "stateMutability": "nonpayable",
      "type": "function"
    },
    {
      "inputs": [
        {
          "internalType": "address",
          "name": "_institutionAddress",
          "type": "address"
        },
        {
          "internalType": "bool",
          "name": "_isActive",
          "type": "bool"
        }
      ],
      "name": "setInstitutionStatus",
      "outputs": [],
      "stateMutability": "nonpayable",
      "type": "function"
    }
  ],
  "bytecode": "0x608060405234801561001057600080fd5b5033600260006101000a81548173ffffffffffffffffffffffffffffffffffffffff021916908373ffffffffffffffffffffffffffffffffffffffff1602179055506117be806100616000396000f3fe608060405234801561001057600080fd5b50600436106100625760003560e01c80630d5328a5146100675780632f1830861461009c5780634c608de7146100b8578063c3c5a547146100ed578063c3e168ab1461011d578063f851a44014610139575b600080fd5b610081600480360381019061007c91906110e2565b610157565b6040516100939695949392919061129b565b60405180910390f35b6100b660048036038101906100b19190610fcf565b6104fc565b005b6100d260048036038101906100cd9190610fa6565b6106c8565b6040516100e49695949392919061132c565b60405180910390f35b61010760048036038101906101029190610fa6565b610a08565b6040516101149190611311565b60405180910390f35b6101376004803603810190610132919061100b565b610ab9565b005b610141610e4b565b60405161014e9190611280565b60405180910390f35b600060608060606000806001876040516101719190611269565b908152602001604051809103902060009054906101000a900473ffffffffffffffffffffffffffffffffffffffff169550600073ffffffffffffffffffffffffffffffffffffffff168673ffffffffffffffffffffffffffffffffffffffff161415610212576040517f08c379a00000000000000000000000000000000000000000000000000000000081526004016102099061144e565b60405180910390fd5b60008060008873ffffffffffffffffffffffffffffffffffffffff1673ffffffffffffffffffffffffffffffffffffffff1681526020019081526020016000206040518060c001604052908160008201805461026d90611595565b80601f016020809104026020016040519081016040528092919081815260200182805461029990611595565b80156102e65780601f106102bb576101008083540402835291602001916102e6565b820191906000526020600020905b8154815290600101906020018083116102c957829003601f168201915b505050505081526020016001820180546102ff90611595565b80601f016020809104026020016040519081016040528092919081815260200182805461032b90611595565b80156103785780601f1061034d57610100808354040283529160200191610378565b820191906000526020600020905b81548152906001019060200180831161035b57829003601f168201915b5050505050815260200160028201805461039190611595565b80601f01602080910402602001604051908101604052809291908181526020018280546103bd90611595565b801561040a5780601f106103df5761010080835404028352916020019161040a565b820191906000526020600020905b8154815290600101906020018083116103ed57829003601f168201915b5050505050815260200160038201805461042390611595565b80601f016020809104026020016040519081016040528092919081815260200182805461044f90611595565b801561049c5780601f106104715761010080835404028352916020019161049c565b820191906000526020600020905b81548152906001019060200180831161047f57829003601f168201915b505050505081526020016004820160009054906101000a900460ff1615151515815260200160058201548152505090508681602001518260400151836060015184608001518560a001519650965096509650965096505091939550919395565b600260009054906101000a900473ffffffffffffffffffffffffffffffffffffffff1673ffffffffffffffffffffffffffffffffffffffff163373ffffffffffffffffffffffffffffffffffffffff161461058c576040517f08c379a00000000000000000000000000000000000000000000000000000000081526004016105839061146e565b60405180910390fd5b60008060008473ffffffffffffffffffffffffffffffffffffffff1673ffffffffffffffffffffffffffffffffffffffff16815260200190815260200160002060000180546105da90611595565b9050141561061d576040517f08c379a00000000000000000000000000000000000000000000000000000000081526004016106149061142e565b60405180910390fd5b806000808473ffffffffffffffffffffffffffffffffffffffff1673ffffffffffffffffffffffffffffffffffffffff16815260200190815260200160002060040160006101000a81548160ff0219169083151502179055508173ffffffffffffffffffffffffffffffffffffffff167f0fadc7e86c3af145bbdd3ce051029cc14e95637a403cf79a8ad3ab177fff77c1826040516106bc9190611311565b60405180910390a25050565b60608060608060008060008060008973ffffffffffffffffffffffffffffffffffffffff1673ffffffffffffffffffffffffffffffffffffffff1681526020019081526020016000206040518060c001604052908160008201805461072c90611595565b80601f016020809104026020016040519081016040528092919081815260200182805461075890611595565b80156107a55780601f1061077a576101008083540402835291602001916107a5565b820191906000526020600020905b81548152906001019060200180831161078857829003601f168201915b505050505081526020016001820180546107be90611595565b80601f01602080910402602001604051908101604052809291908181526020018280546107ea90611595565b80156108375780601f1061080c57610100808354040283529160200191610837565b820191906000526020600020905b81548152906001019060200180831161081a57829003601f168201915b5050505050815260200160028201805461085090611595565b80601f016020809104026020016040519081016040528092919081815260200182805461087c90611595565b80156108c95780601f1061089e576101008083540402835291602001916108c9565b820191906000526020600020905b8154815290600101906020018083116108ac57829003601f168201915b505050505081526020016003820180546108e290611595565b80601f016020809104026020016040519081016040528092919081815260200182805461090e90611595565b801561095b5780601f106109305761010080835404028352916020019161095b565b820191906000526020600020905b81548152906001019060200180831161093e57829003601f168201915b505050505081526020016004820160009054906101000a900460ff161515151581526020016005820154815250509050600081600001515114156109d4576040517f08c379a00000000000000000000000000000000000000000000000000000000081526004016109cb9061142e565b60405180910390fd5b806000015181602001518260400151836060015184608001518560a001519650965096509650965096505091939550919395565b6000806000808473ffffffffffffffffffffffffffffffffffffffff1673ffffffffffffffffffffffffffffffffffffffff1681526020019081526020016000206000018054610a5790611595565b905014158015610ab257506000808373ffffffffffffffffffffffffffffffffffffffff1673ffffffffffffffffffffffffffffffffffffffff16815260200190815260200160002060040160009054906101000a900460ff165b9050919050565b600260009054906101000a900473ffffffffffffffffffffffffffffffffffffffff1673ffffffffffffffffffffffffffffffffffffffff163373ffffffffffffffffffffffffffffffffffffffff1614610b49576040517f08c379a0000000000000000000000000000000000000000000000000000000008152600401610b409061146e565b60405180910390fd5b60008060008773ffffffffffffffffffffffffffffffffffffffff1673ffffffffffffffffffffffffffffffffffffffff1681526020019081526020016000206000018054610b9790611595565b905014610bd9576040517f08c379a0000000000000000000000000000000000000000000000000000000008152600401610bd09061140e565b60405180910390fd5b600073ffffffffffffffffffffffffffffffffffffffff16600185604051610c019190611269565b908152602001604051809103902060009054906101000a900473ffffffffffffffffffffffffffffffffffffffff1673ffffffffffffffffffffffffffffffffffffffff1614610c86576040517f08c379a0000000000000000000000000000000000000000000000000000000008152600401610c7d906113ee565b60405180910390fd5b6040518060c00160405280858152602001848152602001838152602001828152602001600115158152602001428152506000808773ffffffffffffffffffffffffffffffffffffffff1673ffffffffffffffffffffffffffffffffffffffff1681526020019081526020016000206000820151816000019080519060200190610d10929190610e71565b506020820151816001019080519060200190610d2d929190610e71565b506040820151816002019080519060200190610d4a929190610e71565b506060820151816003019080519060200190610d67929190610e71565b5060808201518160040160006101000a81548160ff02191690831515021790555060a0820151816005015590505084600185604051610da69190611269565b908152602001604051809103902060006101000a81548173ffffffffffffffffffffffffffffffffffffffff021916908373ffffffffffffffffffffffffffffffffffffffff1602179055508473ffffffffffffffffffffffffffffffffffffffff167f2d10a18eca5d453423fca77c61f6b5675540c603317b9f24882ee50da5569063858542604051610e3c939291906113a9565b60405180910390a25050505050565b600260009054906101000a900473ffffffffffffffffffffffffffffffffffffffff1681565b828054610e7d90611595565b90600052602060002090601f016020900481019282610e9f5760008555610ee6565b82601f10610eb857805160ff1916838001178555610ee6565b82800160010185558215610ee6579182015b82811115610ee5578251825591602001919060010190610eca565b5b509050610ef39190610ef7565b5090565b5b80821115610f10576000816000905550600101610ef8565b5090565b6000610f27610f22846114b3565b61148e565b905082815260208101848484011115610f3f57600080fd5b610f4a848285611553565b509392505050565b600081359050610f618161175a565b92915050565b600081359050610f7681611771565b92915050565b600082601f830112610f8d57600080fd5b8135610f9d848260208601610f14565b91505092915050565b600060208284031215610fb857600080fd5b6000610fc684828501610f52565b91505092915050565b60008060408385031215610fe257600080fd5b6000610ff085828601610f52565b925050602061100185828601610f67565b9150509250929050565b600080600080600060a0868803121561102357600080fd5b600061103188828901610f52565b955050602086013567ffffffffffffffff81111561104e57600080fd5b61105a88828901610f7c565b945050604086013567ffffffffffffffff81111561107757600080fd5b61108388828901610f7c565b935050606086013567ffffffffffffffff8111156110a057600080fd5b6110ac88828901610f7c565b925050608086013567ffffffffffffffff8111156110c957600080fd5b6110d588828901610f7c565b9150509295509295909350565b6000602082840312156110f457600080fd5b600082013567ffffffffffffffff81111561110e57600080fd5b61111a84828501610f7c565b91505092915050565b61112c8161150b565b82525050565b61113b8161151d565b82525050565b600061114c826114e4565b61115681856114ef565b9350611166818560208601611562565b61116f81611656565b840191505092915050565b6000611185826114e4565b61118f8185611500565b935061119f818560208601611562565b80840191505092915050565b60006111b8601d836114ef565b91506111c382611667565b602082019050919050565b60006111db601e836114ef565b91506111e682611690565b602082019050919050565b60006111fe601a836114ef565b9150611209826116b9565b602082019050919050565b60006112216018836114ef565b915061122c826116e2565b602082019050919050565b60006112446021836114ef565b915061124f8261170b565b604082019050919050565b61126381611549565b82525050565b6000611275828461117a565b915081905092915050565b60006020820190506112956000830184611123565b92915050565b600060c0820190506112b06000830189611123565b81810360208301526112c28188611141565b905081810360408301526112d68187611141565b905081810360608301526112ea8186611141565b90506112f96080830185611132565b61130660a083018461125a565b979650505050505050565b60006020820190506113266000830184611132565b92915050565b600060c08201905081810360008301526113468189611141565b9050818103602083015261135a8188611141565b9050818103604083015261136e8187611141565b905081810360608301526113828186611141565b90506113916080830185611132565b61139e60a083018461125a565b979650505050505050565b600060608201905081810360008301526113c38186611141565b905081810360208301526113d78185611141565b90506113e6604083018461125a565b949350505050565b60006020820190508181036000830152611407816111ab565b9050919050565b60006020820190508181036000830152611427816111ce565b9050919050565b60006020820190508181036000830152611447816111f1565b9050919050565b6000602082019050818103600083015261146781611214565b9050919050565b6000602082019050818103600083015261148781611237565b9050919050565b60006114986114a9565b90506114a482826115c7565b919050565b6000604051905090565b600067ffffffffffffffff8211156114ce576114cd611627565b5b6114d782611656565b9050602081019050919050565b600081519050919050565b600082825260208201905092915050565b600081905092915050565b600061151682611529565b9050919050565b60008115159050919050565b600073ffffffffffffffffffffffffffffffffffffffff82169050919050565b6000819050919050565b82818337600083830152505050565b60005b83811015611580578082015181840152602081019050611565565b8381111561158f576000848401525b50505050565b600060028204905060018216806115ad57607f821691505b602082108114156115c1576115c06115f8565b5b50919050565b6115d082611656565b810181811067ffffffffffffffff821117156115ef576115ee611627565b5b80604052505050565b7f4e487b7100000000000000000000000000000000000000000000000000000000600052602260045260246000fd5b7f4e487b7100000000000000000000000000000000000000000000000000000000600052604160045260246000fd5b6000601f19601f8301169050919050565b7f496e737469747574696f6e20494420616c726561647920657869737473000000600082015250565b7f496e737469747574696f6e20616c726561647920726567697374657265640000600082015250565b7f496e737469747574696f6e206e6f742072656769737465726564000000000000600082015250565b7f496e737469747574696f6e204944206e6f7420666f756e640000000000000000600082015250565b7f4f6e6c792061646d696e2063616e2063616c6c20746869732066756e6374696f60008201527f6e00000000000000000000000000000000000000000000000000000000000000602082015250565b6117638161150b565b811461176e57600080fd5b50565b61177a8161151d565b811461178557600080fd5b5056fea26469706673582212201e2bd722fe771ab2f8a45b2fbca75b50bfe7c7a7c3213f8feefe48d2e30b9a6564736f6c63430008040033",
  "linkReferences": {},
  "deployedLinkReferences": {}
}